:100000000C9434000C9451000C9451000C94FB009F
:100010000C9451000C9451000C9451000C9451001C
:100020000C9451000C9451000C9451000C943E011E
:100030000C9451000C9451000C9451000C945100FC
:100040000C9451000C9451000C9451000C945100EC
:100050000C9451000C9451000C9451000C945100DC
:100060000C9451000C94510011241FBECFEFD8E026
:10007000DEBFCDBF11E0A0E0B1E0E4E2F8E002C0F5
:1000800005900D92A830B107D9F721E0A8E0B1E0C2
:1000900001C01D92AE30B207E1F70E9455010C94E9
:1000A00010040C940000DF92EF92FF920F931F93C5
:1000B000CF93DF937C01EC01EAE0F0E0209741F080
:1000C000CE01BF010E94C302EB012F5F3F4FF6CF6D
:1000D000C901880F991F880F991F0E94EB02082FF2
:1000E000D92EE82FF92F2AE030E0E114F10449F08D
:1000F000C701B9010E94C302819391937B012196AC
:10010000F4CF48EE53E0C230D10539F040ED57E06E
:10011000C130D10511F044EF51E06FE376E0AEE07D
:10012000BEE14150510908F45EC0E02FFD2D30E0E2
:1001300020E0C217D307A9F31BB82115310551F5EB
:1001400018B8459A81919191009781F1813091057C
:1001500079F18230910571F18330910569F1843034
:10016000910561F18530910559F18630910551F184
:100170008730910549F18830910541F1099709F4DB
:1001800017E61BB92F5F3F4FC130D10509F5B8B94C
:100190006BB9CFCF2130310519F418B8449AD2CFBA
:1001A0002230310579F618B8439ACCCF1FE3E9CF56
:1001B00016E0E7CF1BE5E5CF1FE4E3CF16E6E1CF7E
:1001C0001DE6DFCF1CE7DDCF17E0DBCF1FE7D9CF80
:1001D000C230D10511F4A8B9DBCFC330D10509F085
:1001E000A8CF78B9D5CFDF91CF911F910F91FF9014
:1001F000EF90DF9008951F920F920FB60F92112487
:100200008F939F938091690080FD2CC01092850090
:1002100010928400109209011092080180918100CF
:10022000846080938100809181008E7F8093810023
:10023000809181008D7F8093810080916900816031
:100240008093690080910001909101010196909343
:100250000101809300019F918F910F900FBE0F902D
:100260001F9018958091690080FFF5CF1092810052
:10027000809169008E7F80936900EDCF1F920F926D
:100280000FB60F9211248F939F9380910801909144
:100290000901019690930901809308019F918F9124
:1002A0000F900FBE0F901F901895CF93DF9300D043
:1002B00000D01F92CDB7DEB78FEF8AB92098289A69
:1002C00084B1866284B98FE387B91092800010925E
:1002D00085001092840083E294EF909389008093CC
:1002E000880080916F00826080936F008FB7806874
:1002F0008FBF80916B00816080936B00809169005B
:10030000826080936900809169008E7F809369008C
:100310008091680081608093680081E08BBB1D82C2
:1003200001E010E060910801709109018091840062
:100330009091850021E030E08432944F10F430E059
:1003400020E0072E000C880B990B620F731F811D94
:10035000911D0E945D0269837A838B839C838091C7
:10036000690080FDFCCF69817A818B819C8120E0CE
:1003700030E040E050E40E94BE0287FD0DC01982CB
:100380001A821B821C8280910001909101010197C9
:10039000909301018093000169817A818B819C8116
:1003A00020E030E040E85FE30E94580218168CF02D
:1003B000809100019091010107973CF48091000128
:1003C000909101011816190624F010930101009371
:1003D00000018091000190910101019739F48D8114
:1003E0008F5F8D838D8190E00E945300809100018A
:1003F00090910101029739F48D8181508D838D8117
:1004000090E00E94530080910001909101010397B8
:1004100039F48D81880F8D838D8190E00E94530087
:100420008091000190910101049749F48D8190E041
:10043000959587958D838D8190E00E9453008091E2
:10044000000190910101059709F52D8130E02F5FA2
:100450003F4F2130310599F0E2E0F0E0EE9FC0011E
:10046000EF9F900D900D11242817390754F0C90102
:10047000BF010E94C302892B51F33196EFCF22E0D6
:1004800030E02D838D8190E00E9453008091000127
:1004900090910101069709F045CF8D818150990B0C
:1004A000880F991F8D838D8190E00E9453003ACF71
:1004B0000E949A0208F481E00895E89409C097FB2D
:1004C0003EF490958095709561957F4F8F4F9F4F2B
:1004D0009923A9F0F92F96E9BB279395F69587956F
:1004E00077956795B795F111F8CFFAF4BB0F11F432
:1004F00060FF1BC06F5F7F4F8F4F9F4F16C08823D9
:1005000011F096E911C0772321F09EE8872F762F0E
:1005100005C0662371F096E8862F70E060E02AF04F
:100520009A95660F771F881FDAF7880F969587953B
:1005300097F90895990F0008550FAA0BE0E8FEEF10
:1005400016161706E807F907C0F012161306E40797
:10055000F50798F0621B730B840B950B39F40A2690
:1005600061F0232B242B252B21F408950A2609F46E
:10057000A140A6958FEF811D811D08950E949A02CA
:1005800008F48FEF089597FB072E16F4009407D018
:1005900077FD09D00E94D70207FC05D03EF4909564
:1005A00081959F4F0895709561957F4F0895AA1B7F
:1005B000BB1B51E107C0AA1FBB1FA617B70710F04E
:1005C000A61BB70B881F991F5A95A9F78095909580
:1005D000BC01CD0108950F931F93CF93DF93823019
:1005E000910510F482E090E0E0910C01F0910D0192
:1005F00030E020E0B0E0A0E0309799F4211531051B
:1006000009F44AC0281B390B24303105D8F58A81FA
:100610009B816115710589F1FB0193838283FE0142
:1006200011C0408151810281138148175907E0F0C0
:100630004817590799F4109761F012960C93129786
:1006400013961C933296CF01DF91CF911F910F919A
:10065000089500930C0110930D01F4CF211531057D
:1006600051F04217530738F0A901DB019A01BD018F
:10067000DF01F801C1CFEF01F9CF90930D01809315
:100680000C01CDCFFE01E20FF31F81939193225015
:10069000310939832883D7CF20910A0130910B018A
:1006A000232B41F4209104013091050130930B017B
:1006B00020930A0120910201309103012115310597
:1006C00041F42DB73EB74091060150910701241B1C
:1006D000350BE0910A01F0910B01E217F307A0F44A
:1006E0002E1B3F0B2817390778F0AC014E5F5F4F88
:1006F0002417350748F04E0F5F1F50930B014093AE
:100700000A01819391939FCFF0E0E0E09CCFCF93DB
:10071000DF930097E9F0FC01329713821282A091D7
:100720000C01B0910D01ED0130E020E01097A1F433
:1007300020813181820F931F20910A0130910B019A
:100740002817390709F061C0F0930B01E0930A0103
:10075000DF91CF910895EA01CE17DF07E8F54A81CE
:100760005B819E0141155105B1F7E901FB83EA83E5
:1007700049915991C40FD51FEC17FD0761F4808191
:1007800091810296840F951FE90199838883828164
:1007900093819B838A83F0E0E0E012968D919C9197
:1007A00013970097B9F52D913C911197CD010296C1
:1007B000820F931F20910A0130910B0128173907EE
:1007C00039F6309751F510920D0110920C01B0934B
:1007D0000B01A0930A01BCCFD383C2834081518116
:1007E000840F951FC817D90761F44E5F5F4F88814A
:1007F0009981480F591F518340838A819B8193833C
:1008000082832115310509F0B0CFF0930D01E093FB
:100810000C019ECFFD01DC01C0CF13821282D7CF25
:04082000F894FFCF7A
:08082400010000000E0180003C
:00000001FF
